:020000040800F2
:1000000000000120451E0008B5060008B7060008DC
:10001000B9060008BB060008BD0600080000000085
:10002000000000000000000000000000BF06000803
:10003000C106000800000000C3060008C50600084D
:10004000951E0008951E0008951E0008951E0008C4
:10005000951E0008951E0008951E0008951E0008B4
:10006000951E0008951E0008951E0008951E0008A4
:10007000951E0008951E0008951E0008951E000894
:10008000951E0008951E0008951E0008000000003F
:10009000000000000000000000000000951E0008A5
:1000A000951E0008951E0008951E0008951E000864
:1000B000951E0008951E0008951E0008951E000854
:1000C000951E0008951E0008951E0008951E000844
:1000D000951E0008951E0008951E000800000000EF
:1000E000951E0008951E0008951E000800000000DF
:1000F000000000000000000000000000951E000845
:1001000000000000951E0008951E0008951E0008BE
:1001100000000000000000000000000000000000DF
:10012000951E0008951E0008951E0008951E0008E3
:10013000951E000800000000000000000000000004
:10014000000000000000000000000000951E0008F4
:10015000951E0008951E0008951E0008951E0008B3
:10016000951E0008951E0008000000000000000019
:10017000000000000000000000000000000000007F
:1001800000000000951E00080000000000000000B4
:04019000951E0008B0
:1001940010B5054C237833B9044B13B10448AFF3BD
:1001A40000800123237010BD7000002000000000B7
:1001B400F828000808B5034B1BB103490348AFF303
:1001C400008008BD0000000074000020F82800082A
:1001D40053B94AB9002908BF00281CBF4FF0FF31AA
:1001E4004FF0FF3000F074B9ADF1080C6DE904CEA6
:1001F40000F006F8DDF804E0DDE9022304B07047FE
:100204002DE9F047089D04468E46002B4DD18A42C5
:10021400944669D9B2FA82F252B101FA02F3C2F1F8
:10022400200120FA01F10CFA02FC41EA030E944089
:100234004FEA1C48210CBEFBF8F61FFA8CF708FBAA
:1002440016E341EA034306FB07F199420AD91CEB82
:10025400030306F1FF3080F01F81994240F21C81B4
:10026400023E63445B1AA4B2B3FBF8F008FB1033FC
:1002740044EA034400FB07F7A7420AD91CEB040431
:1002840000F1FF3380F00A81A74240F20781644401
:10029400023840EA0640E41B00261DB1D440002386
:1002A400C5E900433146BDE8F0878B4209D9002DEA
:1002B40000F0EF800026C5E9000130463146BDE874
:1002C400F087B3FA83F6002E4AD18B4202D38242DE
:1002D40000F2F980841A61EB030301209E46002D8D
:1002E400E0D0C5E9004EDDE702B9FFDEB2FA82F2E2
:1002F400002A40F09280A1EB0C014FEA1C471FFA40
:100304008CFE0126200CB1FBF7F307FB131140EA26
:1003140001410EFB03F0884208D91CEB010103F1F3
:10032400FF3802D2884200F2CB804346091AA4B2B5
:10033400B1FBF7F007FB101144EA01440EFB00FE89
:10034400A64508D91CEB040400F1FF3102D2A645EE
:1003540000F2BB800846A4EB0E0440EA03409CE78D
:10036400C6F12007B34022FA07FC4CEA030C20FA3A
:1003740007F401FA06F31C43F9404FEA1C4900FA5A
:1003840006F3B1FBF9F8200C1FFA8CFE09FB1811D7
:1003940040EA014108FB0EF0884202FA06F20BD94A
:1003A4001CEB010108F1FF3A80F08880884240F29A
:1003B4008580A8F102086144091AA4B2B1FBF9F0DE
:1003C40009FB101144EA014100FB0EFE8E4508D9D9
:1003D4001CEB010100F1FF346CD28E456AD902385E
:1003E400614440EA0840A0FB0294A1EB0E01A14243
:1003F400C846A64656D353D05DB1B3EB080261EBB1
:100404000E0101FA07F722FA06F3F1401F43C5E98A
:10041400007100263146BDE8F087C2F12003D840C0
:100424000CFA02FC21FA03F3914001434FEA1C4702
:100434001FFA8CFEB3FBF7F007FB10360B0C43EAF4
:10044400064300FB0EF69E4204FA02F408D91CEBA4
:10045400030300F1FF382FD29E422DD902386344A2
:100464009B1B89B2B3FBF7F607FB163341EA034142
:1004740006FB0EF38B4208D91CEB010106F1FF3891
:1004840016D28B4214D9023E6144C91A46EA004688
:1004940038E72E46284605E70646E3E61846F8E61A
:1004A4004B45A9D2B9EB020864EB0C0E0138A3E763
:1004B4004646EAE7204694E74046D1E7D0467BE744
:1004C400023B614432E7304609E76444023842E7BC
:1004D400704700BF72B6FEE700B595B03022002128
:1004E40008A801F001FD00230393049305930693E8
:1004F400079301931F4A116C41F080511164126CEF
:1005040002F080520192019A02931B490A6822F474
:10051400404242F400420A600A6802F440420292F5
:10052400029A0222089201210B9110210C910E9241
:100534000F930823109354231193129204231393BB
:1005440008A800F01DFB80B90F2303930221049136
:10055400002305934FF480520692079303A800F0FA
:100564005DFD20B915B05DF804FBFFF7B3FFFFF79D
:10057400B1FF00BF003802400070004008B500F031
:100584008DFFFFF7A9FF00F017F801F011F801F053
:100594007BF901F065F801F095F801F0BDF901F07F
:1005A400D5F9044801F016FD4FF47A7000F0A2FF6B
:1005B400F7E700BF102900082DE9F0418AB00024B4
:1005C400059406940794089409940194344B1A6B87
:1005D40042F004021A631A6B02F004020192019AB7
:1005E40002941A6B42F080021A631A6B02F08002C2
:1005F4000292029A03941A6B42F001021A631A6B74
:1006040002F001020392039A04941A6B42F002026C
:100614001A631B6B03F002030493049BDFF88C80C2
:1006240022464FF40051404600F0AEFE1D4F2246D4
:100634004FF48871384600F0A7FE1B4E22464FF453
:100644006241304600F0A0FE4FF4005305930125AB
:1006540006950794089405A9404600F0B5FD4FF4AB
:100664008873059306950794089405A9384600F005
:10067400ABFD4FF4805305930694079505A93046C6
:1006840000F0A2FD4FF46243059306950794089485
:1006940005A9304600F098FD0AB0BDE8F08100BF1E
:1006A40000380240000002400004024000080240FA
:1006B400FEE7FEE7FEE7FEE7FEE770477047704798
:1006C40008B500F005FF08BD82B0002100910B4B76
:1006D4005A6C42F480425A645A6C02F4804200928A
:1006E400009A01911A6C42F080521A641B6C03F058
:1006F40080530193019B02B0704700BF0038024051
:1007040070B4036A026A22F00102026246688269D6
:1007140022F073020C6844EA020523F002028B689B
:1007240013430D4CA04209D00B4CA0420DD046609F
:1007340085614A684263036270BC704723F0080312
:10074400CA68134323F00403EEE726F440764A69AB
:1007540032438E691643EAE70000014030B4036A6D
:10076400026A22F4807202624568C26922F073024E
:100774000C68224323F400738C6843EA04230F4C6F
:10078400A04209D00D4CA0420ED04560C2614A6817
:10079400C263036230BC704723F40063CC6843EA4D
:1007A400042323F48063EDE725F440554C6945EABE
:1007B40004158C6945EA0415E7E700BF0000014011
:1007C40030B4036A026A22F4805202624468C26945
:1007D40022F4E6420D6842EA052223F400538D68B0
:1007E40043EA0533074DA84206D04460C2614A6813
:1007F4000264036230BC704724F480444D6944EAC7
:100804008514F2E7000001400368294A90420ED0A3
:10081400B0F1804F0BD0A2F57C42904207D002F594
:100824008062904203D002F58062904203D123F0AB
:1008340070034A6813431E4A90421AD0B0F1804FA5
:1008440017D0A2F57C42904213D002F58062904208
:100854000FD002F5806290420BD002F59A3290429A
:1008640007D002F58062904203D002F58062904284
:1008740003D123F44073CA68134323F080034A6905
:10088400134303608B68C3620B688362084B98420E
:100894000AD001234361036913F0010F03D00369F4
:1008A40023F00103036170470B690363F1E700BFA1
:1008B4000000014040B310B5044690F83D30F3B158
:1008C400022384F83D30214651F8040BFFF79CFFC6
:1008D400012384F8463084F83E3084F83F3084F8AD
:1008E400403084F8413084F8423084F8433084F84E
:1008F400443084F8453084F83D30002010BD80F841
:100904003C3000F011FFDBE701207047002856D08F
:10091400F8B50D46044690F83D30002B4AD002232A
:1009240084F83D302268936823F4804323F007035E
:100934009360214651F8040BFFF766FF21688A682B
:100944008B690E6A2868104323F4407C2CF0030C56
:10095400AA68AB6942EA032343EA0C0323F47C4309
:1009640023F0FC03EA69EF6847EA022C4CEA030C23
:100974002A6A13032A6943EA021343EA0C0326F0A2
:10098400AA066A686D6942EA0512324388602168E2
:100994008B6123681A62012384F8463084F83E3060
:1009A40084F83F3084F8423084F8433084F83D3092
:1009B4000020F8BD80F83C3000F0CCFEAFE7012009
:1009C4007047000030B4036A026A22F01002026227
:1009D4004468826922F4E6420D6842EA052223F063
:1009E40020038D6843EA05130E4DA84209D00D4D2E
:1009F400A8420ED0446082614A688263036230BCBC
:100A0400704723F08003CD6843EA051323F04003C5
:100A1400EDE724F440644D6944EA85048D6944EAB1
:100A24008504E7E70000014038B590F83C30012B1D
:100A340066D004460D46012380F83C300C2A5AD86F
:100A4400DFE802F0075959591B5959593059595976
:100A540044000068FFF754FE2268936943F00803DA
:100A640093612268936923F0040393612268936974
:100A740029690B43936100203EE00068FFF7A2FF61
:100A84002268936943F4006393612268936923F4B1
:100A94008063936122689369296943EA012393611E
:100AA400002029E00068FFF759FE2268D36943F06B
:100AB4000803D3612268D36923F00403D361226855
:100AC400D36929690B43D361002015E00068FFF75F
:100AD40077FE2268D36943F40063D3612268D36943
:100AE40023F48063D3612268D369296943EA01232B
:100AF400D361002000E00120002384F83C3038BD9D
:100B04000220FCE790F83C30012B35D010B40123CF
:100B140080F83C30022380F83D3003685A689C68B2
:100B240022F0700C0A6842EA0C025A600368134A05
:100B3400934212D0B3F1804F0FD0A2F57C4293427E
:100B44000BD002F58062934207D002F58062934293
:100B540003D002F59A32934204D124F080044A6807
:100B640014439C60012380F83D30002380F83C301E
:100B740018465DF8044B704702207047000001409E
:100B8400002800F0E08170B582B00446036813F0D9
:100B9400010F3BD09F4B9B6803F00C03042B2CD01C
:100BA4009C4B9B6803F00C03082B21D06368B3F5BE
:100BB400803F4FD0B3F5A02F52D0964B1A6822F441
:100BC40080321A601A6822F480221A606368002B4B
:100BD40050D000F089FC05468E4B1B6813F4003F8F
:100BE40014D100F081FC401B6428F5D90320B1E145
:100BF400884B5B6813F4800FD8D0864B1B6813F4C2
:100C0400003F03D06368002B00F09F81236813F03A
:100C1400020F54D07F4B9B6813F00C0F3ED07D4BDA
:100C24009B6803F00C03082B33D0E368002B68D0D7
:100C3400794B01221A6000F057FC0546754B1B687E
:100C440013F0020F54D100F04FFC401B0228F5D9D9
:100C540003207FE16F4A136843F480331360B5E7E0
:100C64006C4B1A6842F480221A601A6842F480328B
:100C74001A60ABE700F038FC0546664B1B6813F4BA
:100C8400003FC3D000F030FC401B6428F5D903209A
:100C940060E1604B5B6813F4800FC6D15D4B1B6849
:100CA40013F0020F03D0E368012B40F05081594A3E
:100CB400136823F0F803216943EAC103136023682E
:100CC40013F0080F42D063696BB3534B0122C3F88E
:100CD400802E00F009FC05464E4B5B6F13F0020FAB
:100CE40034D100F001FC401B0228F5D9032031E186
:100CF400484A136823F0F803216943EAC1031360E7
:100D0400DDE7454B00221A6000F0EEFB0546414B3F
:100D14001B6813F0020FD2D000F0E6FB401B022840
:100D2400F5D9032016E13C4B0022C3F8802E00F0D5
:100D3400DBFB0546374B5B6F13F0020F06D000F068
:100D4400D3FB401B0228F5D9032003E1236813F0E9
:100D5400040F77D02F4B1B6C13F0805F33D100232B
:100D640001932C4B1A6C42F080521A641B6C03F0F2
:100D740080530193019B0125284B1B6813F4807F4A
:100D840023D0A368012B34D0052B38D0214B1A6F04
:100D940022F001021A671A6F22F004021A67A3688C
:100DA400002B3DD000F0A0FB06461A4B1B6F13F03E
:100DB400020F46D100F098FB801B41F28833984221
:100DC400F3D90320C6E00025D6E7144A136843F498
:100DD4008073136000F088FB0646104B1B6813F405
:100DE400807FCED100F080FB801B0228F5D9032040
:100DF400B0E0084A136F43F001031367CFE7054BD4
:100E04001A6F42F004021A671A6F42F001021A675D
:100E1400C5E700BF003802400000474200700040B0
:100E240000F062FB0646524B1B6F13F0020F08D012
:100E340000F05AFB801B41F288339842F3D9032017
:100E440088E0EDB9A369002B00F08380484A9268DA
:100E540002F00C02082A51D0022B17D0454B002275
:100E64001A6600F041FB0446414B1B6813F0007FF7
:100E740042D000F039FB001B0228F5D9032069E0B9
:100E84003B4A136C23F080531364DBE7394B002295
:100E94001A6600F029FB0546354B1B6813F0007FEA
:100EA40006D000F021FB401B0228F5D9032051E0B5
:100EB400E369226A1343626A43EA8213A26A52080C
:100EC400013A43EA0243E26A43EA0263284A53606E
:100ED400284B01221A6600F007FB0446244B1B68CA
:100EE40013F0007F06D100F0FFFA001B0228F5D9A9
:100EF40003202FE000202DE000202BE0012B2BD03D
:100F04001B4B5B6803F48001E269914226D103F034
:100F14003F02216A8A4223D1616A47F6C0721A40AD
:100F2400B2EB811F1ED103F44031A26A5208013A88
:100F3400B1EB024F18D103F07063E26AB3EB026FB6
:100F440014D1002006E001207047012002E00120B6
:100F540000E0002002B070BD0120FBE70120F9E7AA
:100F64000120F7E70120F5E70120F3E70120F1E78D
:100F7400003802400000474208B5254B9B6803F047
:100F84000C03042B3FD0082B3FD1214B5A6802F0AD
:100F94003F025B6813F4800F12D01D4B5968C1F3F4
:100FA40088111C480023A1FB0001FFF711F9184B1D
:100FB4005B68C3F3014301335B00B0FBF3F025E04E
:100FC400134B5968C1F3881C4FEA4C11B1EB0C0068
:100FD4006EEB0E0E4FEA8E1343EA90638101091AF9
:100FE40063EB0E03DB0043EA5173C90011EB0C0CF5
:100FF40043F10003990200234FEA8C2041EA9C51FB
:10100400FFF7E6F8D3E7034800E0034808BD00BF54
:101014000038024040787D010024F400002800F0EC
:101024009B8070B50D4604464F4B1B6803F00703C5
:101034008B4208D2CBB24C4A1370136803F00703F7
:101044008B4240F08B80236813F0020F17D013F00B
:10105400040F04D0454A936843F4E0539360236833
:1010640013F0080F04D0414A936843F4604393603B
:101074003E4A936823F0F003A1680B43936023680E
:1010840013F0010F32D06368012B21D09A1E012A7C
:1010940025D9364A126812F0020F61D033498A68A2
:1010A40022F0030213438B6000F01EFA06462F4B16
:1010B4009B6803F00C036268B3EB820F16D000F058
:1010C40013FA801B41F288339842F0D9032042E09E
:1010D400264A126812F4003FE0D101203BE0234A83
:1010E400126812F0007FD9D1012034E01E4B1B6836
:1010F40003F00703AB4207D9EAB21B4B1A701B6813
:1011040003F00703AB422DD1236813F0040F06D07C
:10111400164A936823F4E053E1680B439360236811
:1011240013F0080F07D0114A936823F46043216930
:1011340043EAC1039360FFF71FFF0C4B9B68C3F3A3
:1011440003130B4AD35CD8400A4B18600A4B186847
:1011540000F07EF9002070BD012070470120FAE7FD
:101164000120F8E70120F6E7003C02400038024085
:10117400182900080800002004000020014B18680A
:10118400704700BF0800002008B5FFF7F7FF044BC5
:101194009B68C3F38223034AD35CD84008BD00BFD5
:1011A400003802402829000808B5FFF7E7FF044B80
:1011B4009B68C3F34233034AD35CD84008BD00BFE5
:1011C400003802402829000800230F2B00F2D280A7
:1011D40070B582B060E085685E000324B44025EAFF
:1011E4000405CC68B4402C438460456825EA0205B4
:1011F4004C68C4F300129A402A4342605AE0DC0867
:10120400083450F8246003F0070295000F22AA4026
:1012140026EA020E0A69AA4042EA0E0240F8242095
:101224005CE0042200E0002202FA0EF22A430234B7
:10123400514D45F82420514A94686FEA0C0224EA7F
:101244000C054E6816F4801F01D04CEA04054B4C83
:10125400A560E46802EA04054E6816F4001F01D094
:101264004CEA0405454CE560646802EA04054E68EE
:1012740016F4003F01D04CEA0405404C6560246834
:1012840022404D6815F4803F01D04CEA04023B4CE7
:10129400226001330F2B6BD801229A400C6804EAB8
:1012A400020C32EA0404F4D14C6804F00304013C57
:1012B400012C90D94A6802F00302032A09D0C468B9
:1012C4005D000322AA4024EA02048A68AA40224359
:1012D400C2604A6802F00302022A90D004684FEA0E
:1012E400430E032202FA0EF224EA02044A6802F0D0
:1012F400030202FA0EF2224302604A6812F4403FEB
:10130400C7D0002201921E4A546C44F480445464B1
:10131400526C02F480420192019A9C08A51C164A60
:1013240052F8255003F003024FEA820E0F2202FA0C
:101334000EF225EA0205134A90423FF474AF02F517
:10134400806290420ED002F5806290420CD002F589
:10135400806290420AD002F5806290423FF461AF0D
:10136400072261E701225FE702225DE703225BE7D0
:1013740002B070BD704700BF00380140003C01401E
:1013840000380240000002400AB18161704709043C
:1013940081617047074AD36823F4E0631B041B0C84
:1013A400000200F4E060034343F0BF6343F40033FE
:1013B400D360704700ED00E000B5194BDB68C3F360
:1013C4000223C3F1070CBCF1040F28BF4FF0040C37
:1013D40003F1040EBEF1060F18D9033B4FF0FF3E94
:1013E4000EFA0CFC21EA0C0199400EFA03F322EAEE
:1013F4000303194300280BDB0901C9B200F1604063
:1014040000F5614080F800135DF804FB0023E5E774
:1014140000F00F000901C9B2024B1954F4E700BFF0
:1014240000ED00E014ED00E00138B0F1807F0BD254
:101434004FF0E0235861054AF02182F82310002080
:10144400986107221A6170470120704700ED00E09F
:1014540010B504460E4B18784FF47A73B3FBF0F3CF
:101464000C4A1068B0FBF3F0FFF7DEFF68B90F2CED
:1014740001D901200AE0002221464FF0FF30FFF796
:101484009BFF054B1C60002000E0012010BD00BF45
:1014940000000020080000200400002008B50B4BC9
:1014A4001A6842F400721A601A6842F480621A6080
:1014B4001A6842F480721A600320FFF76BFF0F2052
:1014C400FFF7C6FFFFF700F9002008BD003C02400B
:1014D400034A1168034B1B780B441360704700BF29
:1014E4008C00002000000020014B1868704700BFEA
:1014F4008C00002038B50446FFF7F6FF0546B4F12A
:10150400FF3F02D0044B1B781C44FFF7EDFF401B48
:10151400A042FAD338BD00BF00000020034AD2F82D
:10152400883043F47003C2F88830704700ED00E05F
:1015340010B503460C4A0D490D48006840B10C48EB
:1015440000680344521A934206D8094A136010BD36
:101554000748084C0460F2E700F09CFC0C2303608D
:101564004FF0FF30F3E700BF00000120000400004B
:10157400900000206802002070B50C461646002535
:1015840006E0AFF30080214601F8010B01350C465B
:10159400B542F6DB304670BD4FF0FF3070474FF474
:1015A40000534B60002070470120704700207047B3
:1015B40008B50D480D4B03604FF48273436000235C
:1015C4008360C360036143614FF400728261C3614D
:1015D4000362436283620A23C36200F03FFA00B9E4
:1015E40008BDFEF777FFFBE79400002000300140C0
:1015F40000B589B0002303930493059306930793DE
:101604000268154B9A4202D009B05DF804FB002130
:10161400019103F584335A6C42F480525A645A6C33
:1016240002F480520192019A02911A6B42F0010273
:101634001A631B6B03F001030293029BE0230393E1
:1016440002230493032306930523079303A9034862
:10165400FFF7BAFDD8E700BF0030014000000240A8
:1016640000B58DB02422002103A800F03DFC002326
:10167400019302931148124A0260436083604FF65B
:10168400FF72C2600361836101230393059309938D
:1016940003A9FFF73BF950B900230193029301A971
:1016A4000648FFF72FFA28B90DB05DF804FBFEF7E2
:1016B40011FFF1E7FEF70EFFF6E700BF340100204B
:1016C4000004004000B58DB02422002103A800F0DE
:1016D4000BFC0023019302931148124A02604360F9
:1016E40083604FF6FF72C260036183610123039339
:1016F4000593099303A9FFF709F950B9002301934E
:10170400029301A90648FFF7FDF928B90DB05DF869
:1017140004FBFEF7DFFEF1E7FEF7DCFEF6E700BFB1
:101724007C010020000800400368B3F1804F00D022
:10173400704782B000230193054B1A6C42F00102FA
:101744001A641B6C03F001030193019B02B0704700
:101754000038024000B58BB000230593069307932D
:10176400089309930368244A934205D0234A934279
:1017740022D00BB05DF804FB00210191204B1A6CC0
:1017840042F002021A641A6C02F002020192019AF7
:1017940002911A6B42F002021A631B6B03F00203FC
:1017A4000293029B3023059302230693099305A910
:1017B4001448FFF709FDDCE700210391104B1A6C74
:1017C40042F004021A641A6C02F004020392039AAF
:1017D40004911A6B42F002021A631B6B03F00203BA
:1017E4000493049BC023059302230693099305A93C
:1017F4000448FFF7E9FCBCE700040040000800408F
:10180400003802400004024070B588B000230393FE
:1018140004930593069307930368B3F1804F01D0B3
:1018240008B070BD0024019403F50E331A6B42F026
:1018340001021A631A6B02F001020192019A0294E6
:101844001A6B42F002021A631B6B03F00203029349
:10185400029B4FF400430393022604960125079547
:1018640003A90748FFF7B0FC0823039304960594E3
:101874000694079503A90348FFF7A6FCD0E700BF29
:10188400000002400004024000B58BB0002308931E
:101894000993019302930393049305930693079387
:1018A4001C484FF080420260436083604FF0FF3277
:1018B400C26003618361FEF7FDFFF8B9002308935A
:1018C400099308A91348FFF71DF9D0B960230193C0
:1018D400002202920392059201A90E48FFF7A4F890
:1018E40090B904220DEB02010A48FFF79DF870B984
:1018F4000848FFF789FF0BB05DF804FBFEF7EAFD2B
:10190400DCE7FEF7E7FDE1E7FEF7E4FDE9E7FEF7D4
:10191400E1FDEDE7EC00002008B50A480A4B03603E
:101924004FF4E133436000238360C36003610C22FE
:1019340042618361C36100F0ECF900B908BDFEF7B0
:10194400C9FDFBE7C40100200010014008B50A48A6
:101954000A4B03604FF4E133436000238360C360A8
:1019640003610C2242618361C36100F0D2F900B9C2
:1019740008BDFEF7AFFDFBE70C0200200044004069
:1019840000B58BB00023059306930793089309933E
:101994000368284A934205D0274A934226D00BB0C5
:1019A4005DF804FB00210191244B5A6C42F01002B3
:1019B4005A645A6C02F010020192019A02911A6B55
:1019C40042F001021A631B6B03F001030293029BB2
:1019D4004FF4C0630593022306930323089307235C
:1019E400099305A91648FFF7EFFBD8E700210391F7
:1019F400124B1A6C42F400321A641A6C02F400326C
:101A04000392039A04911A6B42F001021A631B6B4E
:101A140003F001030493049B0C2305930223069310
:101A2400032308930723099305A90548FFF7CCFB73
:101A3400B5E700BF001001400044004000380240F8
:101A44000000024010B514464FF0FF3392B2024832
:101A540000F08FF9204610BDC401002000285AD0A0
:101A640010B50446436A33B94368B3F5827F05D0A1
:101A74000023C36102E00023036143610023A362E6
:101A840094F85130002B40D0022384F8513022685E
:101A9400136823F040031360636803F48273A2683D
:101AA40002F404421343E26802F40062134322691D
:101AB40002F002021343626902F001021343A269B5
:101AC40002F400721343E26902F038021343226AFB
:101AD40002F080021343A26A02F400522168134305
:101AE4000B60638B03F00403626A02F01002216846
:101AF40013434B602268D36923F40063D36100204D
:101B04006065012384F8513010BD84F850302046BC
:101B1400FFF76EFDB8E701207047026802F10C037D
:101B240053E8003F23F490730C3242E8003100295B
:101B3400F3D1026802F1140353E8003F23F00103D8
:101B4400143242E800310029F3D1036B012B05D094
:101B5400202380F84230002303637047026802F1B7
:101B64000C0353E8003F23F010030C3242E8003129
:101B74000029F3D1ECE7000038B504460268136984
:101B840023F44053C1680B43136183680269134310
:101B940042691343C2691A430168CB6823F41643AC
:101BA40023F00C031343CB600268536923F440739E
:101BB40081690B4353610368314A934206D002F5AD
:101BC4008062934202D0FFF7DFFA01E0FFF7ECFAFC
:101BD400E369B3F5004F29D00021031849411B18CC
:101BE40041F10001C90041EA5371DB001818636830
:101BF4004FEA83024FEA937341F10001FEF7E8FADA
:101C0400204DA5FB00325109642303FB11031B0182
:101C14003233A5FB03235B0903F0F00202EB01124C
:101C240003F00F03216813448B6038BD00230218AE
:101C340043EB0301121841F10001C90041EA52715A
:101C4400D200101841F10001626892185B41FEF75E
:101C5400BFFA0C4DA5FB00325109642303FB1103A9
:101C6400DB003233A5FB03235B095A0002F4F8724C
:101C740002EB011203F00703216813448B60D4E7DD
:101C8400001001401F85EB512DE9F04383B0054658
:101C94000E4617469946DDF828802C68246836EAF3
:101CA40004030CBF4FF0010C4FF0000CBC4528D1CD
:101CB400B8F1FF3FF1D0FFF717FCA0EB0900404556
:101CC40023D8B8F1000F22D02B68DA6812F0040F81
:101CD400E3D0802EE1D0402EDFD01A6812F0080F36
:101CE400DBD0002401941A6801925B680193019B84
:101CF4002846FFF712FF08236B6485F84040012053
:101D040000E0002003B0BDE8F0830320FAE70320DD
:101D1400F8E760B310B5044690F8413013B32423B8
:101D240084F841302268D36823F40053D3602046FA
:101D3400FFF722FF2268136923F49043136122689A
:101D4400536923F02A0353612268D36843F4005390
:101D5400D36000206064202384F8413084F842304A
:101D6400606310BD80F84030FFF70AFED7E701201A
:101D740070472DE9F04182B01E4690F84130DBB245
:101D8400202B56D104460D469046002955D00AB959
:101D940001204FE000234364212380F84130FFF702
:101DA400A3FB0746A4F82480A4F82680A368B3F50F
:101DB400805F02D04FF0000814E023692BB34FF08A
:101DC40000080FE0202384F84130032032E038F883
:101DD400023B2268C3F308035360E28C92B2013AD7
:101DE40092B2E284E38C9BB293B100963B4600220C
:101DF40080212046FFF748FF0028E3D1002DE6D0DC
:101E040015F8012B23685A60E7E7A8460025E9E79F
:101E140000963B46002240212046FFF735FF18B9C3
:101E2400202384F8413005E0202384F84130032046
:101E340000E0022002B0BDE8F0810120FAE70000D2
:101E4400DFF834D0FFF76AFB0C480D490D4A002334
:101E540002E0D458C4500433C4188C42F9D30A4A5B
:101E64000A4C002301E013600432A242FBD300F0C9
:101E740017F8FEF783FB70470000012000000020E4
:101E840070000020A42900087000002064020020D3
:101E9400FEE70000014B1868704700BF0C000020EB
:101EA40070B50D4D0D4C641BA4100026A64209D13B
:101EB4000B4D0C4C00F01EFD641BA4100026A64222
:101EC40005D170BD55F8043B98470136EEE755F847
:101ED400043B98470136F2E79C2900089C29000836
:101EE4009C290008A029000802440346934200D11B
:101EF400704703F8011BF9E770B50E46054618B1A3
:101F040083690BB900F048FAAB69AC6813B9284689
:101F140000F042FA2C4B9C4220D16C68636EDB07C4
:101F240005D4A389980502D4A06D00F0D3FAA3893F
:101F340019071DD52369DBB1013EA36816F8011FFB
:101F4400013BA36039BB002B38DA22460A2128461C
:101F540000F048F8013011D00A2511E01B4B9C42D7
:101F640001D1AC68DAE71A4B9C4208BFEC68D5E7AC
:101F74002146284600F088F80028DDD04FF0FF35D0
:101F8400636EDA0705D4A3899B0502D4A06D00F023
:101F9400A2FA284670BD002B04DAA2699A4206DC34
:101FA4000A2904D023685A1C22601970C5E7224606
:101FB400284600F017F80130BFD1DFE723680A256F
:101FC4005A1C22601D70DBE754290008742900089C
:101FD40034290008024B01461868FFF78DBF00BF83
:101FE4000C000020F8B50E461446054618B1836966
:101FF4000BB900F0D1F9214B9C422BD16C68A36939
:10200400A360A3891A072FD523696BB323692068BA
:10201400C01A6369F6B28342374604DC2146284677
:1020240000F026F930BBA368013BA36023685A1C67
:1020340022601E7063690130834204D0A389DB07E8
:1020440006D50A2E04D12146284600F011F988B994
:102054003846F8BD0A4B9C4201D1AC68CFE7094B26
:102064009C4208BFEC68CAE72146284600F00CF8F9
:102074000028CBD04FF0FF37EAE700BF542900080F
:102084007429000834290008324B70B51D680646CF
:102094000C4625B1AB6913B9284600F07DF92E4BE7
:1020A4009C420FD16C68A389B4F90C2019072CD475
:1020B400DD0611D40923336042F04003A3814FF0BD
:1020C400FF303EE0254B9C4201D1AC68EBE7244B4A
:1020D4009C4208BFEC68E6E7580712D5616B41B132
:1020E40004F14403994202D0304600F05BFA002325
:1020F4006363A38923F02403A3810023636023691A
:102104002360A38943F00803A38123694BB9A389FE
:1021140003F42073B3F5007F03D02146304600F06A
:1021240001FAA089B4F90C2010F001030AD00023AD
:10213400A36063695B42A361236943B910F0800023
:10214400BAD170BD810758BF6369A360F4E700206A
:10215400F7E700BF0C000020542900087429000888
:10216400342900088A892DE9F041054610070C46F8
:1021740058D44B68002B05DC0B6C002B02DC0020D0
:10218400BDE8F081E66A002EF9D0002312F48052F3
:102194002F682B6032D0606DA3895A0705D5636818
:1021A400C01A636B0BB1236CC01A00230246E66AA3
:1021B400216A2846B047431CA38906D129681D29F2
:1021C4002CD82A4ACA40D60728D500226260D904EE
:1021D4002269226004D5421C01D12B6803B96065D1
:1021E400616B2F600029CAD004F14403994202D0E4
:1021F400284600F0D7F900206063C1E7216A012373
:102204002846B047411CC7D12B68002BC4D01D2BD6
:1022140001D0162B01D12F60B1E7A38943F040030D
:10222400A381ADE70F69002FA9D093070E6808BFFB
:102234004B690F6018BF0023A6EB07088B60B8F149
:10224400000F9CDD216AA66A43463A462846B047F9
:10225400002806DCA38943F04003A3814FF0FF303C
:102264008EE70744A8EB0008E9E700BF010040201F
:1022740038B50B6905460C4613B90025284638BD08
:1022840018B183690BB900F087F8144B9C421BD139
:102294006C68B4F90C30002BEFD0626ED00704D414
:1022A400990502D4A06D00F015F928462146FFF7E0
:1022B40059FF636EDA070546E0D4A3899B05DDD494
:1022C400A06D00F008F9D9E7054B9C4201D1AC6838
:1022D400DFE7044B9C4208BFEC68DAE754290008A6
:1022E4007429000834290008002310B50446C0E905
:1022F4000033C0E90433836081814366C281836112
:10230400194608225C30FFF7EFFD054B6362054B6D
:10231400A362054BE362054B2462236310BD00BF37
:1023240089270008AB270008E327000807280008CE
:10233400014900F0AFB800BF7522000870B56822EB
:102344004D1E55430E4605F1740100F097F90446FD
:1023540040B10021C0E900160C30A06005F168020C
:10236400FFF7C2FD204670BD014800F0B3B800BFBE
:1023740055020020014800F0AEB800BF550200200D
:10238400014800F0A7B800BF56020020014800F041
:10239400A2B800BF5602002010B50446FFF7F0FFB4
:1023A400A3691BB1BDE81040FFF7F0BFC4E91233C5
:1023B4002365134B134A1B68A262A34204BF012383
:1023C400A361204600F020F86060204600F01CF86D
:1023D400A060204600F018F80022E0600421606844
:1023E400FFF782FFA06801220921FFF77DFFE06863
:1023F40002221221FFF778FF0123A361D2E700BF75
:102404003029000835230008F8B50746FFF7ACFF6C
:102414001E4B1E68B36913B93046FFF7BDFF48363B
:10242400D6E90134013B03D533680BB33668F7E7CB
:10243400B4F90C50D5B9164BE36004F15800656645
:1024440000F047F8FFF796FFC4E90155C4E90455C5
:102454002560A5610822294604F15C00FFF744FDCC
:10246400C4E90D55C4E912552046F8BD6834D9E7CE
:1024740004213846FFF762FF044630600028D5D1B6
:10248400FFF778FF0C233B60EEE700BF302900081C
:102494000100FFFF2DE9F8430646884600F1480491
:1024A4000027D4E90195B9F1010905D52468002C68
:1024B400F7D13846BDE8F883AB89012B07D9B5F9C4
:1024C4000E30013303D029463046C04707436835F0
:1024D400E9E770477047704770B50E46B1F90E10C2
:1024E400002996B014461D4608DAB6F90C300022CD
:1024F4002A601A0610D44FF480630EE06A4600F096
:10250400A7F90028F1DB019A02F47042A2F5005306
:102514005A425A412A60EEE740230020236016B055
:1025240070BD00008B8973B59D0706460C4607D520
:1025340004F14703236023610123636102B070BD8A
:1025440001AB6A46FFF7C8FF00990546304600F024
:1025540095F848B9B4F90C309A05EFD423F0030385
:1025640043F00203A381E3E70D4BB362A389206028
:1025740043F08003A381009B6361019B20615BB1F5
:10258400B4F90E10304600F075F928B1A38923F090
:10259400030343F00103A381A0890543A581CDE78B
:1025A4003523000837B5002944D051F8043C019084
:1025B400002BA1F10404B8BFE41800F07DF91E4A11
:1025C4000198136833B96360146003B0BDE8304008
:1025D40000F078B9A34208D9256861198B4201BF7C
:1025E40019685B6849192160EDE71A465B680BB10D
:1025F400A342FAD911685518A5420BD12468214485
:102604005418A3421160E0D11C685B6853602144F4
:102614001160DAE702D90C230360D6E72568611953
:102624008B4204BF19685B68636004BF4919216069
:102634005460CAE703B030BD5802002070B50E4E96
:102644000C463168054611B900F08CF8306021461B
:10265400284600F087F8431C0AD0C41C24F0030465
:10266400A04207D0211A284600F07CF8013001D19D
:102674004FF0FF34204670BD5C0200202DE9F0418C
:10268400CD1C25F0030508350C2D38BF0C25002D75
:10269400074601DBA94205D90C233B6000263046DE
:1026A400BDE8F0812E4E00F007F933681C4634BBB8
:1026B40029463846FFF7C2FF431C04464DD134680F
:1026C4002646002E40D123683146384604EB0308E1
:1026D40000F048F880453AD1216803356D1A25F099
:1026E400030508350C2D38BF0C2529463846FFF75D
:1026F400A5FF01302BD023682B4423600EE0226811
:10270400521B1ED40B2A16D96119A342256018BF87
:102714005960636808BF316062514B60384604F108
:102724000B0600F0CFF826F00706231DF21AB6D0E8
:102734009B1BA350B3E76268A3420CBF32605A608C
:10274400ECE723466468B2E734467668B9E70C23BD
:102754003B60384600F0B6F8A1E72560DEE700BF2D
:102764005802002038B5064D0023044608462B6065
:10277400FEF7DEFE431C02D12B6803B1236038BD93
:102784006002002010B50C46B1F90E1000F0A0F85C
:102794000028ABBF636DA3891B1823F48053ACBF1F
:1027A4006365A38110BD2DE9F0411F468B89DB05CC
:1027B40005460C46164605D5B1F90E100223002233
:1027C40000F068F8A389B4F90E1023F48053A381B0
:1027D40032463B462846BDE8F04100F017B810B534
:1027E4000C46B1F90E1000F055F8431CA38915BF2F
:1027F400606523F4805343F48053A38118BFA381FD
:1028040010BDB1F90E1000F013B8000038B5074D33
:1028140004460846114600222A601A46FFF712F9B8
:10282400431C02D12B6803B1236038BD6002002031
:1028340038B5064D0023044608462B60FEF7ACFE6F
:10284400431C02D12B6803B1236038BD6002002011
:1028540038B5074D00230446084611462B60FEF7A1
:102864009EFE431C02D12B6803B1236038BD00BF18
:102874006002002038B5064D0023044608462B604C
:10288400FEF792FE431C02D12B6803B1236038BDCE
:102894006002002038B5074D044608461146002260
:1028A4002A601A46FEF782FE431C02D12B6803B14C
:1028B400236038BD600200200148FFF70BBE00BF53
:1028C400540200200148FFF706BE00BF5402002056
:1028D40038B5074D04460846114600222A601A46B8
:1028E400FEF74AFE431C02D12B6803B1236038BDB6
:1028F40060020020F8B500BFF8BC08BC9E467047D3
:0C290400F8B500BFF8BC08BC9E46704748
:1029100048454C4C4F000000000000000000000043
:102920000102030406070809000000000102030475
:102930001000002000000000000000000000000067
:102940000000000000000000000000000000000087
:102950000000000000000000000000000000000077
:102960000000000000000000000000000000000067
:102970000000000000000000000000000000000057
:102980000000000000000000000000000000000047
:042990000000000043
:0829940070D8FF7F0100000074
:04299C00B901000875
:0429A0009501000895
:1029A40001000000100000000024F40010000020CA
:1029B4000000000054290008742900083429000884
:1029C4000000000000000000000000000000000003
:1029D40000000000000000000000000000000000F3
:1029E40000000000000000000000000000000000E3
:1029F40000000000000000000000000000000000D3
:102A040000000000000000000000000000000000C2
:0400000508001E458C
:00000001FF
